:100000000F308A00632F0000CC376910D32C4E2AA2
:10001000412C0000433469106E346138A0356910FA
:10002000F43AA0396F16A036EF342037E83070105C
:10003000EC30690050346538203AEF306E10E43708
:100040006E10E73461373A106E346137202A20345D
:10005000EF3063107400C734E1342038E83A6F376A
:100060006710743969376810E2306310311D20372A
:10007000E8306E105010E837E13120380001D434F8
:100080006E34A0396F10ED3AA0305E313A106E3404
:100090006137A0262034EF3063106D0054396910A9
:1000A000F43AF9327410E437691D2037E8306E10E5
:1000B0004410E837E13120320001CB34E536203AF4
:1000C000F230A0396F10EE33F53C6537203A6F10EF
:1000D0006E34613720272034EF3063106E005034C7
:1000E0006538203A69376810E4376E10E7346137B5
:1000F00000014E346138A0303A1000014E346138AE
:1001000020313A1000014E3461382038E832701046
:10011000F4346E343A100001CB327410F13A6110AD
:10012000253664102B10253664103D1025366400EA
:10013000CB327410F13A6110253664102D1025363B
:1001400064103D1025366400CB327410F13A611012
:10015000253664102A10253664103D1025366400BB
:10016000CB327410F13A6110253664102F10253609
:1001700064103D102533000F5034F537EE33203A2C
:10018000F2346E342031E131A0183A10613CA015F0
:100190002031A01EA03100014E346138A0303A1049
:1001A00000014E34613820313A1000014E3461387C
:1001B000A0313A10000178103D1025330001D434ED
:1001C0006E34A0396F10ED3A00014E346138A03022
:1001D0003A1000014E34613820313A100001543990
:1001E0006910F43AF9327410E43769004E3461381A
:1001F000A0303A100001FC126C327C103D10253604
:100200006400FC126C327C103D1025366400CB3447
:10021000E536203AF230A0396F10EE33F53C653701
:10022000203A6F004E346138A0303A10000161105E
:100230006B346F3767107034E134A0396F10EE33D0
:10024000F53C6537203A6F0061106B346F376710EB
:100250007034E134A0396F10EE33F53C6537203A45
:100260006F006110EC30A0396F10EE33F53C65374C
:10027000203A6F0061106B346F3767107034E134CF
:10028000A0396F10EE33F53C6537203A6F005034DB
:100290006538203AEF306E10E4376E10E73461377E
:1002A0003A106E346137202A2034EF306310740026
:1002B000D4346E342031E9326E10E4373A106E34A3
:1002C000613720212034EF3063106200D3372038AB
:1002D000E83A6310EC34653720346F383A106E34E6
:1002E000613720242034EF3063106800D337203882
:1002F000E83A6310311DA03031102B106A31310003
:100300004E346138A030311D20004E346138203128
:10031000311D2000D3372038E83A6310321DA03059
:1003200032102B106A3132004E346138A030321D49
:1003300020004E3461382031321D20004E346138A7
:100340002038E8327010F4346E343A100001CB32A9
:100350007410F13A6110EC303A10253664102B100D
:100360006A142536E4140001CB327410F13A61109E
:10037000EC303A10253664102B106A142536E4143C
:100380000001CB327410F13A6110EC303A1025368E
:1003900064102B106A142536E4140001CB3274105B
:1003A000F13A6110EC303A102533A0156A14253368
:1003B0002900D3372038E83A6310BA20A01EA030B5
:1003C000A015203562004E346138A0303A1000018B
:1003D0004E34613820313A100001C2346537203282
:1003E0006F103D1025330001D3372038E83A6310F1
:1003F000BA20A01EA030A015203562004E3461380E
:10040000A0303A1000014E34613820313A1000011A
:10041000CB327410F13A6110EC303A10253664108A
:100420002B106A142536E4140001CB327410743496
:10043000F531A036E9326E107034F5310000D33753
:100440002038691D2037E8306E105010E837E13150
:1004500020380001C830EE33A0396F10F43A203A4A
:10046000E8306D10751D2037E8306E107500C8300B
:10047000EE33A0396F10E4346537203AE8306D1060
:10048000651D2037E8306E10D4306200C832A039C4
:100490006F10C53AEC32721D2037E8306E106500DF
:1004A000D4376310E437A0306E34A0396137671D4C
:1004B0002037E8306E106300F034A01EA019AE188B
:1004C000B418B51C0001C830EE33A0396F10F43AEF
:1004D000203AE8306D1075103D103438693C311801
:1004E000DE163700C830EE33A0396F10E4346537BC
:1004F000203AE8306D1065103D103817B81A3419DD
:10050000F818302FAD183200C832A0396F10C53A34
:10051000EC32A032A01E2019AE1B311C321C200070
:10052000D4376310E437A0306E34A03961376710D8
:10053000E31E333C31185E1C0000CD346537203A91
:10054000E83A631D2037E8306E105210E837E13189
:1005500020390001CD3465372038E83A631D203753
:10056000E8306E104310E837E131A0310001C830A7
:10057000EE33A0396F1D2037E8306E104810E83791
:10058000E13120340000C2306E10E337A036F53779
:100590006E10F4346538203AF5312100D4346538D2
:1005A000203AF531203AE8342037E8306E10431015
:1005B000E837E131A0310001D8346E10E3306D101E
:1005C0006F37203161372100CB2254105424D521BC
:1005D00000000B08D5008B13831603178C170C141F
:1005E0000000000083120313D51B8B1703170C08A0
:1005F0007F3903193F2B0313D50003170D0803138D
:10060000D60003170F080313D70055080C1E062B3E
:100610009900560803178D000313570803178F001E
:1006200003130B08D8008B13831603178C170C14B5
:100630000000000083120313D81B8B1703170C0D47
:100640000E0D7F3903193F2B0313D50003170D0837
:100650000313D60003170F080313D70055080C1E09
:100660002F2B9900560803178D0003135708031703
:100670008F008D0A03198F0A0313E92A0317031346
:10068000080025308400831300080319542B06301A
:10069000F800F701F70B4A2BF80B492B7B30F700DA
:1006A000F70B502B800B472B0800043003178D00ED
:1006B00000308F000313E9220D300C1E5D2B9900D2
:1006C00022102208831687008312071408002030A6
:1006D000EE00EA01EB01EC01ED016508FA006408A7
:1006E000F9006308F8006208F7000310771C862BF6
:1006F0006608EA0767080318670FEB07680803181E
:10070000680FEC0769080318690FED07ED0CEC0C96
:10071000EB0CEA0CFA0CF90CF80CF70CEE0B752B41
:100720000800CE01CF01D301D201D101D001D40103
:100730008C1E982B1A08CE004E082F3C0318A42BB1
:100740004E08393C0318AC2B4E082D3C0319AC2B3A
:100750004E080D3C031D2C2C4E082D3C031DB92BBF
:100760000130D4024E08CF002D300C1EB52B99005D
:100770002B2C4E080D3C031DCC2B0D300C1EBE2B1C
:1007800099005008F7005108F8005208F900530882
:10079000FA003E2C3A2C2B2C4F082D3C031D022C2A
:1007A0004E080C1ED12B99003030CE025308E500C4
:1007B0005208E4005108E3005008E200E901E801B2
:1007C000E7010A30E60067237A08D8007908D700E5
:1007D0007808D6007708D5004E085502D000560894
:1007E000D1000030031C0130D1025708D200003084
:1007F000031C0130D2025808D3000030031C013022
:10080000D3022B2C4E080C1E032C99003030CE0244
:100810005308E5005208E4005108E3005008E200E4
:10082000E901E801E7010A30E60067234E0877078F
:10083000D0007808D100003003180130D1077908C2
:10084000D200003003180130D2077A08D3000030FC
:1008500003180130D307382C0A3003178D000030FD
:100860008F000313E9220D300C1E342C9900912BBC
:10087000D40A982B0D300C1E3B2C990008000B0855
:10088000D7008B13831603178C170C14000000007D
:1008900083120313D71B8B170318772C03170C082D
:1008A0007F390313D70003170D080313D80003176C
:1008B0000F080313D90057080C1E5C2C9900580828
:1008C00003178D000313590803178F0003130B0838
:1008D000DA008B13831603178C170C14000000002A
:1008E00083120313DA1B8B17D60B772C972C031765
:1008F0000C0D0E0D7F390313D70003170D080313DA
:10090000D80003170F080313D90057080C1E862CB4
:100910009900580803178D000313590803178F0017
:100920008D0A03198F0A03100313D60B3F2C0800FE
:1009300083189D2C6A3084008313F701F801F901B4
:10094000FA01EA01EB01EC01ED01690868046704B2
:1009500066040319DB2C2030EE000310E20DE30DDA
:10096000E40DE50DEA0DEB0DEC0DED0D69086D02E2
:10097000031DC42C68086C02031DC42C67086B029D
:10098000031DC42C66086A02031CD52C6608EA0203
:100990006708031C670FEB026808031C680FEC0272
:1009A0006908031C690FED020314F70DF80DF90D2A
:1009B000FA0DEE0BAD2C6A088000840A6B088000EB
:1009C000840A6C088000840A6D088000080004080E
:1009D000DA00D91FF82CDA03DA16D609D709D809B4
:1009E000D909D60A0319D70A0319D80A0319D90A4B
:1009F0003B30E1009A30E000CA30DF00DE010A300F
:100A0000DC0083145630840083135908E50058082D
:100A1000E4005708E3005608E2006108E9006008B6
:100A2000E8005F08E7005E08E60098247808F70809
:100A3000031D2D2D5C08013A03192D2D5A080319A9
:100A40002F2D0F395C020319272D03184E2DDA1BA9
:100A50004E2D5A1B2F2D2030492D2030DA05DA1E5D
:100A60003B2DDA127708DA002D300C1E352D990057
:100A70005A08F700DA013030DA1E492DDA12770809
:100A8000DA002D300C1E422D99005A08F700DA01C9
:100A90003030F70777080C1E4B2D99008310610842
:100AA000E5006008E4005F08E3005E08E200E90199
:100AB000E801E7010A30E60098247A08E1007908A5
:100AC000E0007808DF007708DE00DC0B012D08006D
:100AD000B630F700FA01F901F8015610D51F7E2D46
:100AE0005614D209D309D409D509D20A031D7E2D83
:100AF000D30A031D7E2DD40A0319D50A52085304C4
:100B000054045504031D862DF701952D0310F81B81
:100B1000922DD20DD30DD40DD50DFA0DF90DF80D82
:100B2000F70B862DF8135618F817080070080319EC
:100B3000682E8316A4007B08031DA02D8312682E47
:100B4000A402031CAA2D7F30A407031CA92D831225
:100B5000682EB42D8130A4020318B02D8312682EA4
:100B6000031DB42D8312682E2408F700F801F90143
:100B7000FA01A3017108A200A2177208A10073086C
:100B8000A0001930A4007E08A0020318D72D013060
:100B9000A1020318D72DA2020318D72DA302031810
:100BA000D72DA30AA20AA10A7E08A007092E7D0854
:100BB000A1020318F22D0130A2020318F22DA302A4
:100BC0000318F22DA30AA20A7D08A1077E08A00738
:100BD000031C092EA10A031D092EA20A031D092EBA
:100BE000A30A092E7C088038A2020318082E0130BF
:100BF000A3020318082EA30A7C088038A2077D08E8
:100C0000A107031CE62DA20A031DE62DA30AE62D6B
:100C10007A14A40B0C2E172E0310A00DA10DA20DFB
:100C2000A30D0310FA0DF90DF80DA50DC32D251C0C
:100C30001F2E0310F80CF90CFA0CA50C232EF70B41
:100C4000232E8312682EA51B4C2E0310A00DA10D80
:100C5000A20DA30D7E08A0020318382E0130A102B8
:100C60000318382EA2020318382EA302031C5D2E8F
:100C70007D08A1020318432E0130A2020318432E5F
:100C8000A302031C5D2E7C088038A20203184C2EA0
:100C90000130A302031C5D2EFA0A031D5D2EF90A22
:100CA000031D5D2EF80A031D5D2EF70A031D5A2E43
:100CB0008312682EF80CF90CFA0C7108A4007C0859
:100CC000A406A41F652EF8176D2EF8136D2E83123F
:100CD000F701F801F901FA018316831208005B0895
:100CE0000319DF2EE3005F080319DF2EE307031863
:100CF000802E7F30E302031CDF2E0319DF2E842EAB
:100D00008130E3070318DF2E6308F700F801F901CB
:100D1000FA015C08E700E7175D08E6005E08E500F9
:100D20001830E300E401651CAD2E6208FA07031CCD
:100D30009F2EF90A031D9F2EF80A0319E417610874
:100D4000F907031CA62EF80A0319E4176008DD0052
:100D5000DD175D08F8070318E417E40DF80CF90C2B
:100D6000FA0CE70CE60CE50C0310E30B922E0130B5
:100D7000F7070318DF2EF81BC42EE70DFA0DF90D47
:100D8000F80DF7030319DF2EE71FD52EFA0A031D0E
:100D9000D52EF90A031DD52EF80A031DD52EF80C01
:100DA000F90CFA0CF70A0319DF2E5C08E40060085E
:100DB000E406E41FDD2EF817E32EF813E32EF70107
:100DC000F801F901FA0108000408D3005208D5001F
:100DD0000319032F5108DE005008DD004F08DC0026
:100DE0004E08DB00E201E1012030E0008230DF004C
:100DF0006F267A08D1007908D0007808CF007708EC
:100E0000CE00D50BEA2E5108DE005008DD004F0859
:100E1000DC004E08DB005B08B63CDB00FA015C0836
:100E2000DF00DC170310DC0CDD0CDE0CFA0CF90C17
:100E3000F80CF70CDB0B122FDF1F292FF709F8092D
:100E4000F909FA09F70A0319F80A0319F90A031943
:100E5000FA0A7A08D1007908D0007808CF0077081C
:100E6000CE00D11F402FD303D316CE09CF09D0090E
:100E7000D109CE0A0319CF0A0319D00A0319D10ADE
:100E80003B30DA009A30D900CA30D800D7010A3096
:100E9000D50052080319D30A83144E3084008313FB
:100EA0005108E5005008E4004F08E3004E08E20056
:100EB0005A08E9005908E8005808E7005708E60012
:100EC00098247808F708031D782F520A5502031951
:100ED000782F530803197A2F0F3955020319722FEF
:100EE0000318AE2FD31BAE2F531B7A2F2030A92F00
:100EF0002030D305D31E892FD3125208031DD303EC
:100F00007708D3002D300C1E832F99005308F7006B
:100F1000D30152085502031D982F7708D3002E30B5
:100F20000C1E902F99005308F7002030D305003095
:100F30003030D31EA92FD3125208031DD3037708D4
:100F4000D3002D300C1EA22F99005308F700D301B7
:100F50003030F70777080C1EAB2F990083105A0822
:100F6000E5005908E4005808E3005708E200E901E9
:100F7000E801E7010A30E60098247A08DA007908E7
:100F8000D9007808D8007708D700D50B4C2F080077
:1010000080308318FC068316A201A3017108A10099
:101010007C08A10670080319F128A000F7007B08DE
:101020000319FA28A00203199628031C54287C08E7
:10103000A600A6177D08A5007E08A400A301031042
:10104000A60CA50CA40CA30CA00B1E28A11F2B28DA
:1010500022140E29221020102216733084008313CC
:1010600023292212A11B3E28201C4928A60CA50CCE
:10107000A40CA30CF70A031909294928A61B4C281C
:101080000310A30DA40DA50DA60DF703031909293F
:101090003E282217B62822137108A100A11F52284A
:1010A000A6170229A61302297B08A000F7007008E2
:1010B000A0027108A600A6177208A5007308A40074
:1010C000A3010310A60CA50CA40CA30CA00B602874
:1010D000A11F6D28A2140E29A2102010A2167E3086
:1010E000840083132329A212A11B8028201C8B2893
:1010F000A60CA50CA40CA30CF70A031909298B282C
:10110000A61B8E280310A30DA40DA50DA60DF70395
:10111000031909298028A217B628A2137C08A10068
:10112000A11F9428A6170229A61302297C08A6004D
:10113000A6177D08A5007E08A400A11FA328A6135A
:1011400022150E292211A30120107330840083136D
:101150002329A11BCC287108A100201CB628A60CAD
:10116000A50CA40CA30CF70A03190929A31FC7286F
:10117000A40A031DC728A50A031DC728A60A031D24
:10118000C728A60CA50CA40CF70A03190929221BD1
:101190004B28A21B8D28EB288030A606A61FD4283A
:1011A0000E297C08A100E1287108A100A608031DF2
:1011B000E128A508031DE128A408031DE128F70183
:1011C0000229A61BEB280310A30DA40DA50DA60D47
:1011D000F70BE1280929A11FEF28A6170229A6135A
:1011E00002297B08F7007C08A6007D08A5007E0880
:1011F000A40002297008F7007108A6007208A50073
:101200007308A4002608F8002508F9002408FA004D
:101210004129F701F801F901FA014129A301A409C3
:10122000A509A609A309A30A031D1C29A40A031DD5
:101230001C29A50A0319A60A22182A28A2186C2814
:101240002219A228D1280008A407031C2D29A50AC9
:10125000031D2D29A60A0319201484030008A507DD
:10126000031C3529A60A0319201484030008801FD3
:10127000803AA60703182014221A3128A21A7328CC
:10128000A928831208007108F4007C08F406F41FF2
:101290004E2903110310F11B031481297108F40076
:1012A0007B08F5007008F50203195C29F41F8129F9
:1012B0000308013A830081297C08F5007108F502D2
:1012C00003196829F41F81290308013A8300812941
:1012D0007D08F5007208F50203197429F41F8129AD
:1012E0000308013A830081297E08F5007308F5029E
:1012F00003198029F41F81290308013A83008129F9
:10130000031008005508E5005408E4005308E30002
:101310005208E2005508E9005408E8005308E700C5
:101320005208E6008A1167238A157A08E1007908D5
:10133000E0007808DF007708DE005908E50058086B
:10134000E4005708E3005608E2005908E90058088D
:10135000E8005708E7005608E6008A1167238A1557
:101360005E08F7075F0803185F0FF80760080318A7
:10137000600FF90761080318610FFA077A08E100A6
:101380007908E0007808DF007708DE00B630F70063
:10139000FA01F901F8015E085F0460046104031DAD
:1013A000D329F701E0290310F81BDF29DE0DDF0D3B
:1013B000E00DE10DFA0DF90DF80DF70BD329F81337
:1013C0007A08E1007908E0007808DF007708DE009D
:1013D0006108E5006008E4005F08E3005E08E200E1
:1013E0006508F3006408F2006308F1006208F00089
:1013F000FE01FD01FC01FB0143210318012A031D2D
:10140000062AF701F801F901FA01802A6508E900C6
:101410006408E8006308E7006208E600EF01663050
:10142000EE006E08840083136F1883170008F30121
:10143000F2007F30F2070318F30A0310730CFA006E
:10144000720CF900F2006E08840083136F18831782
:10145000720880006908ED006808EC006708EB007E
:101460006608EA006508F3006408F2006308F1000A
:101470006208F0006908FE006808FD006708FC00CB
:101480006608FB008A1196258A1583106908F30007
:101490006808F2006708F1006608F0007A08FE00AC
:1014A0007908FD007808FC007708FB0000207A0826
:1014B000E9007908E8007808E7007708E6006E0898
:1014C000840083136F18831780036D08F3006C0882
:1014D000F2006B08F1006A08F0006908FE00680875
:1014E000FD006708FC006608FB004321031D2A2A53
:1014F0006A08F7006B08F8006C08F9006D08FA003C
:101500007A08DD007908DC007808DB007708DA006B
:10151000F7005B08F8005C08F9005D08FA000800B5
:10152000473003178D0001308F008A110313E92221
:101530008A150D300C1E9A2A9900583003178D0019
:1015400001308F008A110313E9228A150D300C1E19
:10155000A72A9900663003178D0001308F008A1189
:101560000313E9228A150D300C1EB42A99008C1E33
:10157000B72A1A08BD003D08743C0319C32A3D0868
:10158000543C031D412E763003178D0001308F002F
:101590008A110313E9228A150D300C1ECD2A9900F9
:1015A000803003178D0001308F008A110313E92268
:1015B0008A158A1191238A157A08B0007908AF003C
:1015C0007808AE007708AD00853003178D00013034
:1015D0008F008A110313E9228A158A1191238A1533
:1015E0007A08B8007908B7007808B6007708B5001F
:1015F0008A3003178D0001308F008A110313E9220E
:101600008A150D300C1E022B9900943003178D00A3
:1016100001308F008A110313E9228A158A11912360
:101620008A157A08B4007908B3007808B200770800
:10163000B100993003178D0001308F008A11031318
:10164000E9228A158A1191238A157A08BC00790843
:10165000BB007808BA007708B9009E3003178D00E8
:1016600001308F008A110313E9228A158C1E362B54
:101670001A08D63EFA3E0318402E063E592F2B304C
:101680000C1E402B99000D300C1E442B9900310884
:101690002D07CE002E08CF0032080318320FCF07D7
:1016A0002F08D00033080318330FD0073008D100BB
:1016B00034080318340FD10739083507D20036082B
:1016C000D3003A0803183A0FD3073708D4003B0871
:1016D00003183B0FD4073808D5003C0803183C0F0B
:1016E000D507A73003178D0001308F0003100C3091
:1016F0000313D6008A113F248A1541308400510813
:10170000D9005008D8004F08D7004E08D6008A11DB
:10171000E7248A15AE3003178D0001308F000314C3
:1017200005300313D6008A113F248A154130840006
:101730005508D9005408D8005308D7005208D600DD
:101740008A11E7248A1529300C1EA42B99000D302C
:101750000C1EA82B9900402E2D300C1EAD2B99008D
:101760000D300C1EB12B990031082D02CE002E0831
:10177000CF003208031C320FCF022F08D0003308ED
:10178000031C330FD0023008D1003408031C340F7F
:10179000D10239083502D2003608D3003A08031CBA
:1017A0003A0FD3023708D4003B08031C3B0FD40286
:1017B0003808D5003C08031C3C0FD502B430031791
:1017C0008D0001308F0003100C300313D6008A11F6
:1017D0003F248A15413084005108D9005008D800B0
:1017E0004F08D7004E08D6008A11E7248A15BB306F
:1017F00003178D0001308F00031405300313D6004A
:101800008A113F248A15413084005508D9005408B4
:10181000D8005308D7005208D6008A11E7248A1549
:1018200029300C1E112C99000D300C1E152C99001E
:10183000402E2A300C1E1A2C99000D300C1E1E2C26
:1018400099003008E5002F08E4002E08E3002D0879
:10185000E2003408E9003308E8003208E700310804
:10186000E6008A1167238A157A08D1007908D0002A
:101870007808CF007708CE003808E5003708E40084
:101880003608E3003508E2003C08E9003B08E800C0
:101890003A08E7003908E6008A1167238A157708B5
:1018A000CE027808031C780FCF027908031C790F49
:1018B000D0027A08031C7A0FD1023008E5002F0805
:1018C000E4002E08E3002D08E2003C08E9003B0894
:1018D000E8003A08E7003908E6008A1167238A150C
:1018E0007A08D5007908D4007808D3007708D200A8
:1018F0003408E5003308E4003208E3003108E20070
:101900003808E9003708E8003608E7003508E6003F
:101910008A1167238A157708D20778080318780F89
:10192000D30779080318790FD4077A0803187A0FB8
:10193000D507C13003178D0001308F0003100C3024
:101940000313D6008A113F248A15413084005108C0
:10195000D9005008D8004F08D7004E08D6008A1189
:10196000E7248A15C83003178D0001308F00031457
:1019700005300313D6008A113F248A1541308400B4
:101980005508D9005408D8005308D7005208D6008B
:101990008A11E7248A1529300C1ECC2C99000D30B1
:1019A0000C1ED02C9900402E2F300C1ED52C9900E7
:1019B0000D300C1ED92C9900B108031DE82CB2087B
:1019C000031DE82CB308031DE82CB4080319F42CFC
:1019D000B908031DF92CBA08031DF92CBB08031D17
:1019E000F92CBC08031DF92C8A1155238A15402EA9
:1019F000402E3408D5003308D4003208D300310813
:101A0000D2003C08D9003B08D8003A08D700390872
:101A1000D60082217A08D1007908D0007808CF005A
:101A20007708CE003408D5003308D4003208D3003C
:101A30003108D2003C08D9003B08D8003A08D7004A
:101A40003908D60082215108DE005008DD004F0819
:101A5000DC004E08DB007A08E2007908E100780833
:101A6000E0007708DF008A116F268A157A08C10026
:101A70007908C0007808BF007708BE003008E5008C
:101A80002F08E4002E08E3002D08E2003408E900E6
:101A90003308E8003208E7003108E6008A116723BE
:101AA0008A157A08D1007908D0007808CF00770825
:101AB000CE003808E5003708E4003608E3003508B2
:101AC000E2003C08E9003B08E8003A08E700390872
:101AD000E6008A1167238A157708CE07780803186D
:101AE000780FCF0779080318790FD0077A08031801
:101AF0007A0FD1075108D5005008D4004F08D30001
:101B00004E08D2008A1168258A157A08F3007908F0
:101B1000F2007808F1007708F0004108FE00400864
:101B2000FD003F08FC003E08FB008A1196258A153F
:101B30007A08C5007908C4007808C3007708C20095
:101B40003808E5003708E4003608E3003508E2000D
:101B50003408E9003308E8003208E7003108E600FD
:101B60008A1167238A157A08D1007908D00078088D
:101B7000CF007708CE003008E5002F08E4002E08DB
:101B8000E3002D08E2003C08E9003B08E8003A08C1
:101B9000E7003908E6008A1167238A157708CE0224
:101BA0007808031C780FCF027908031C790FD00244
:101BB0007A08031C7A0FD1025108D5005008D400CE
:101BC0004F08D3004E08D2008A1168258A157A087A
:101BD000F3007908F2007808F1007708F000410876
:101BE000FE004008FD003F08FC003E08FB008A1193
:101BF00096258A157A08C9007908C8007808C700B0
:101C00007708C600CE3003178D0001308F00031017
:101C10000C300313D6008A113F248A1589308400C2
:101C20004508D1004408D0004308CF004208CE0048
:101C30000230D2008A11E4268A15D53003178D00B0
:101C400001308F00031004300313D6008A113F24A3
:101C50008A15893084004908D1004808D000470817
:101C6000CF004608CE000230D2008A11E4268A1541
:101C700029300C1E392E99000D300C1E3D2E990076
:101C8000472F3D08623C0319492E3D08423C031D85
:101C9000B82ED93003178D0001308F008A1103133D
:101CA000E9228A150D300C1E532E9900E3300317DC
:101CB0008D0001308F008A110313E9228A158A11E1
:101CC00091238A157A08A8007908A7007808A60049
:101CD0007708A500E83003178D0001308F008A11C6
:101CE0000313E9228A158A1191238A157A08AC0018
:101CF0007908AB007808AA007708A9002808D50061
:101D00002708D4002608D3002508D2002C08D900C3
:101D10002B08D8002A08D7002908D60082217A0883
:101D2000CD007908CC007808CB007708CA00ED30E8
:101D300003178D0001308F0003100A300313D60003
:101D40008A113F248A15893084004D08D1004C083F
:101D5000D0004B08CF004A08CE000230D2008A11D2
:101D6000E4268A150D300C1EB32E9900492F472FFB
:101D70003D08683C0319C02E3D08483C031D402F18
:101D8000F43003178D0001308F008A110313E9220C
:101D90008A150D300C1ECA2E9900FE3003178D00D7
:101DA00001308F008A110313E9228A158A119123C9
:101DB0008A157A08A8007908A7007808A60077088D
:101DC000A500033003178D0002308F008A11031322
:101DD000E9228A158A1191238A157A08AC007908BC
:101DE000AB007808AA007708A9002909CE002A09C3
:101DF000CF002B09D0002C09D100CE0A0319CF0A3D
:101E00000319D00A0319D10A083003178D000230D4
:101E10008F0003100C300313D6008A113F248A155B
:101E2000413084002808D9002708D8002608D700A8
:101E30002508D6008A11E7248A150F3003178D0074
:101E400002308F00031405300313D6008A113F249B
:101E50008A15413084005108D9005008D8004F0835
:101E6000D7004E08D6008A11E7248A1529300C1EA7
:101E7000372F99000D300C1E3B2F9900492F472F0B
:101E80008A1155238A150D300C1E442F9900492FB5
:101E9000B72A153003178D0002308F008A11031303
:101EA000E9228A150D300C1E532F99008A110A164B
:101EB0002E2F0A148A140A158207192C3F2B402E44
:101EC000AC2B402ED42C03081F398300813083169D
:101ED0009900A6309800903083129800FF30A2003D
:101EE000813083169900A6309800903083129800B4
:101EF000813083169900A6309800903083129800A4
:101F0000813083169900A630980090308312980093
:101F100083161F149F141F159F1107309C008313F5
:101F20008312A001A101813083169900A630980088
:101F30009030831298000A168A1100200A128A151E
:101F4000C33003178D0002308F008A110313E9227A
:101F50008A150D300C1EAA2F9900CE3003178D0064
:101F600002308F008A110313E9228A150D300C1EEE
:101F7000B72F99008C1EBA2F1A08A3002308433CE0
:101F80000319C62F2308633C031DD32FA30122107E
:101F9000220883168700831207100A168A11002070
:101FA0000A128A15EA2FDC3003178D0002308F00E9
:101FB0008A110313E9228A150D300C1EDD2F9900BA
:101FC000E43003178D0002308F008A110313E922D9
:081FD0008A15EB2F9B2F630023
:102000009D3003178D0002308F000A120313E9225E
:102010000A160D300C1E0A2899006430A5000A1219
:1020200041230A16AA3003178D0002308F000A12CE
:102030000313E9220A160D300C1E1C289900643087
:10204000A5000A1241230A16B73003178D0002308B
:102050008F000A120313E9220A160D300C1E2E28D7
:1020600099006430A5000A1241230A168C1E3628F6
:102070001A08A4002408483C031942282408683C94
:10208000031DE9281F3003178D0002308F000A124C
:102090000313E9220A160D300C1E4C2899002A3031
:1020A00003178D0002308F000A120313E9220A166B
:1020B0000D300C1E59289900373003178D0002305F
:1020C0008F000A120313E9220A160D300C1E66282F
:1020D0009900463003178D0002308F000A12031357
:1020E000E9220A160D300C1E732899005030031790
:1020F0008D0002308F000A120313E9220A160D30F8
:102100000C1E802899008C1E83281A08A50025081B
:10211000703C03198F282508503C031D9D285C3016
:1021200003178D0002308F000A120313E9220A16EA
:102130000D300C1E99289900E8282508753C031DD0
:10214000AF28633003178D0002308F000A1203138B
:10215000E9220A160D300C1EAB289900E828250844
:10216000093C031DC128723003178D0002308F0017
:102170000A120313E9220A160D300C1EBD2899001D
:10218000E8282508653C031DD328843003178D00FB
:1021900002308F000A120313E9220A160D300C1EBA
:1021A000CF289900E8282508633C031DE5289030D6
:1021B00003178D0002308F000A120313E9220A165A
:1021C0000D300C1EE1289900E8280A1255230A1642
:1021D000342F2408523C0319F1282408723C031DB3
:1021E000232F1A3003178D0000308F000A120313BB
:1021F000E9220A160D300C1EFB2899002B3003171C
:102200008D0000308F000A120313E9220A160D30E8
:102210000C1E082999003F3003178D0000308F00F5
:102220000A120313E9220A160D300C1E1529990013
:102230004E3003178D0000308F000A120313E9227D
:102240000A160D300C1E222999005D3003178D00EF
:1022500000308F000A120313E9220A160D300C1EFB
:102260002F299900A901A801A701A601AD01AC0180
:10227000AB01AA01B101B001AF01AE018C1E3E2934
:102280001A08A5002508543C03194A292508743C5E
:10229000031D952B6F3003178D0000308F000A123D
:1022A0000313E9220A160D300C1E542999007930C7
:1022B00003178D0000308F000A120313E9220A165B
:1022C0000A1291230A167A08A9007908A80078084A
:1022D000A7007708A6007E3003178D0000308F001E
:1022E0000A120313E9220A160A1291230A167A081F
:1022F000AD007908AC007808AB007708AA008330FD
:1023000003178D0000308F000A120313E9220A160A
:102310008C1E88291A082B3A03199829063A0319A2
:10232000052A073A0319722A053A0319E52A902B60
:102330002B300C1E992999000D300C1E9D299900F7
:102340002A082607C4002708C5002B0803182B0FEE
:10235000C5072808C6002C0803182C0FC607290833
:10236000C7002D0803182D0FC7078C3003178D00E9
:1023700000308F00031008300313D6000A123F24E8
:102380000A16413084002908D9002808D8002708F7
:10239000D7002608D6000A12E7240A1620300C1EA1
:1023A000CF2999002B300C1ED329990020300C1E08
:1023B000D7299900413084002D08D9002C08D80075
:1023C0002B08D7002A08D6000A12E7240A16203064
:1023D0000C1EE82999003D300C1EEC299900203094
:1023E0000C1EF0299900413084004708D9004608A6
:1023F000D8004508D7004408D6000A12E7240A1678
:102400000D300C1E012A9900942B2D300C1E062A2B
:1024100099000D300C1E0A2A99002A082602C400D1
:102420002708C5002B08031C2B0FC5022808C6006F
:102430002C08031C2C0FC6022908C7002D08031CFA
:102440002D0FC702983003178D0000308F00031046
:1024500008300313D6000A123F240A1641308400C4
:102460002908D9002808D8002708D7002608D60050
:102470000A12E7240A1620300C1E3C2A99002D303F
:102480000C1E402A990020300C1E442A990041302D
:1024900084002D08D9002C08D8002B08D7002A0862
:1024A000D6000A12E7240A1620300C1E552A99007D
:1024B0003D300C1E592A990020300C1E5D2A9900CF
:1024C000413084004708D9004608D8004508D700A5
:1024D0004408D6000A12E7240A160D300C1E6E2A94
:1024E0009900942B2A300C1E732A99000D300C1E73
:1024F000772A99002908E5002808E4002708E30066
:102500002608E2002D08E9002C08E8002B08E70067
:102510002A08E6000A1267230A167A08C700790813
:10252000C6007808C5007708C400A43003178D00E2
:1025300000308F00031008300313D6000A123F2426
:102540000A16413084002908D9002808D800270835
:10255000D7002608D6000A12E7240A1620300C1EDF
:10256000AF2A99002A300C1EB32A990020300C1E85
:10257000B72A9900413084002D08D9002C08D800D2
:102580002B08D7002A08D6000A12E7240A162030A2
:102590000C1EC82A99003D300C1ECC2A9900203010
:1025A0000C1ED02A9900413084004708D900460803
:1025B000D8004508D7004408D6000A12E7240A16B6
:1025C0000D300C1EE12A9900942B2F300C1EE62AA8
:1025D00099000D300C1EEA2A9900AA08031DFD2A55
:1025E000AB08031DFD2AAC08031DFD2AAD08031D21
:1025F000FD2A0A1255230A168B2B2908D500280814
:10260000D4002708D3002608D2000A1268250A162B
:102610007A08B5007908B4007808B3007708B200EA
:102620002D08D5002C08D4002B08D3002A08D2008E
:102630000A1268250A167A08B9007908B8007808DD
:10264000B7007708B6003508F3003408F200330805
:10265000F1003208F0003908FE003808FD003708A4
:10266000FC003608FB000A1296250A167A08C100FB
:102670007908C0007808BF007708BE00B0300317A3
:102680008D0000308F00031008300313D6000A12AB
:102690003F240A16413084002908D9002808D800B0
:1026A0002708D7002608D6000A12E7240A16203089
:1026B0000C1E582B99002F300C1E5C2B99002030DB
:1026C0000C1E602B9900413084002D08D9002C0885
:1026D000D8002B08D7002A08D6000A12E7240A16C9
:1026E00020300C1E712B99003D300C1E752B99006B
:1026F00020300C1E792B9900893084004108D100CC
:102700004008D0003F08CF003E08CE000230D20083
:102710000A12E4260A160D300C1E8C2B9900942BFD
:102720000A1255230A16942B222F2508503C031910
:102730009D2B2508703C031D882CBC3003178D0091
:1027400000308F000A120313E9220A160D300C1E06
:10275000A72B9900CC3003178D0000308F000A1290
:102760000313E9220A160A1291230A167A08A9000D
:102770007908A8007808A7007708A6002908D500DE
:102780002808D4002708D3002608D2000A1268259A
:102790000A167A08B5007908B4007808B3007708FB
:1027A000B200D13003178D0000308F000A120313DE
:1027B000E9220A160A1291230A167A08AD0079084E
:1027C000AC007808AB007708AA002D08D5002C08CB
:1027D000D4002B08D3002A08D2000A1268250A1652
:1027E0007A08B9007908B8007808B7007708B60009
:1027F000D63003178D0000308F000A120313E92230
:102800000A160A1291230A167A08B1007908B00054
:102810007808AF007708AE003108D5003008D40042
:102820002F08D3002E08D2000A1268250A167A084B
:10283000BD007908BC007808BB007708BA00A6087C
:10284000031D2F2CA708031D2F2CA808031D2F2CB8
:10285000A908031D2F2C0A1255230A16872C83144E
:102860003D08F3003C08F2003B08F1003A08F00094
:102870003908FE003808FD003708FC003608FB0068
:102880000A128A1500200A168A117A08C7007908E8
:10289000C6007808C5007708C4007A08F3007908F4
:1028A000F2007808F1007708F0003508FE003408DF
:1028B000FD003308FC003208FB000A1296250A16B8
:1028C0007A08C1007908C0007808BF007708BE0008
:1028D000DB3003178D0000308F000310043003132A
:1028E000D6000A123F240A16893084004108D1001C
:1028F0004008D0003F08CF003E08CE000230D20092
:102900000A12E4260A160D300C1E842C9900222F80
:1029100025086D3C0319902C25084D3C031D532DB3
:10292000DF3003178D0000308F000A120313E922F5
:102930000A160D300C1E9A2C9900E53003178D00F5
:1029400000308F000A120313E9220A160A1291239B
:102950000A167A08A9007908A8007808A70077085D
:10296000A600EA3003178D0000308F000A1203130F
:10297000E9220A160A1291230A167A08AD0079088C
:10298000AC007808AB007708AA002908C70028081F
:10299000C6002708C5002608C4002D08CB002C0857
:1029A000CA002B08C9002A08C800CF01CE01CD01FA
:1029B0000130CC00D000CB1B072DCB08031DEA2C27
:1029C000CA08031DEA2CC908031DEA2C5008480256
:1029D000031C072D4F08E5004E08E4004D08E300F6
:1029E0004C08E2004708E9004608E8004508E7000F
:1029F0004408E6000A1267230A167A08CF0079080D
:102A0000CE007808CD007708CC00D00ADB2C4C082B
:102A1000F7004D08F8004E08F9004F08FA007A0850
:102A2000C7007908C6007808C5007708C40041309F
:102A300084002908D9002808D8002708D7002608CC
:102A4000D6000A12E7240A165E300C1E252D9900C6
:102A5000413084002D08D9002C08D8002B08D7005D
:102A60002A08D6000A12E7240A1620300C1E362D3A
:102A700099003D300C1E3A2D990020300C1E3E2D41
:102A80009900413084004708D9004608D80045081D
:102A9000D7004408D6000A12E7240A160D300C1E8F
:102AA0004F2D9900222F2508443C03195B2D250842
:102AB000643C031DEB2DEF3003178D0000308F00B9
:102AC0000A120313E9220A160D300C1E652D990017
:102AD000F63003178D0000308F000A120313E9222D
:102AE0000A160A1291230A167A08A9007908A80082
:102AF0007808A7007708A600A91BAD2D7C300C1E16
:102B00007F2D9900413084002908D9002808D80079
:102B10002708D7002608D6000A12E7240A16FD3037
:102B200003178D0000308F00031004300313D6000C
:102B30000A123F240A16413084002908D9002808C7
:102B4000D8002708D7002608D6000A12E7240A165C
:102B50000D300C1EA92D9900EA2D2609C400270965
:102B6000C5002809C6002909C700C40A0319C50AF7
:102B70000319C60A0319C70A7C300C1EBD2D990023
:102B8000413084002908D9002808D8002708D70038
:102B90002608D6000A12E7240A16033003178D0010
:102BA00001308F00031004300313D6000A123F24B3
:102BB0000A16413084004708D9004608D800450865
:102BC000D7004408D6000A12E7240A160D300C1E5E
:102BD000E72D9900222F25084E3C0319F32D2508D7
:102BE0006E3C031D1F2F0130C200073003178D00FC
:102BF00001308F000A120313E9220A160D300C1E51
:102C0000FF2D9900123003178D0001308F000A123A
:102C10000313E9220A160A1291230A167A08A90058
:102C20007908A8007808A7007708A600A608031D61
:102C3000222EA708031D222EA808031D222EA90854
:102C400003192D2E260B3C2EA708031D3C2EA80889
:102C5000031D3C2EA908031D3C2E173003178D00C1
:102C600001308F000A120313E9220A160D300C1EE0
:102C7000372E9900C201002F0230C30083102908AB
:102C8000C7002808C6002708C5002608C400CB01D5
:102C9000CA01C9010230C8008318512E4C3084008B
:102CA000831347084B068039D100C71F622EC40921
:102CB000C509C609C709C40A0319C50A0319C60A02
:102CC0000319C70ACB1F6F2EC809C909CA09CB0946
:102CD000C80A0319C90A0319CA0A0319CB0AF7015A
:102CE000F801F901FA01CC01CD01CE01CF014B0869
:102CF0004A04490448040319AD2E2030D0000310C3
:102D0000C40DC50DC60DC70DCC0DCD0DCE0DCF0D0F
:102D10004B084F02031D962E4A084E02031D962EA5
:102D200049084D02031D962E48084C02031CA72E8D
:102D30004808CC024908031C490FCD024A08031C6D
:102D40004A0FCE024B08031C4B0FCF020314F70DA2
:102D5000F80DF90DFA0DD00B7F2ED11FBA2EF70901
:102D6000F809F909FA09F70A0319F80A0319F90A1F
:102D70000319FA0A4C088000840A4D088000840A6E
:102D80004E088000840A4F088000FA1B002FFA08C2
:102D9000031DD42EF908031DD42EF808031DD42ECC
:102DA00043087702031C002F2608C4004308C5000F
:102DB0004508F80144020318E02E4408F700EC2E01
:102DC000F7010830C600C40DF70D45087702031857
:102DD000F700F80DC60BE32EF708031DFE2E243076
:102DE00003178D0001308F000A120313E9220A161F
:102DF0000D300C1EF92E9900C201002FC30A3E2E81
:102E0000C2080319112F313003178D0001308F00D4
:102E10000A120313E9220A160D300C1E0D2F990019
:102E20001E2F3A3003178D0001308F000A12031352
:102E3000E9220A160D300C1E1B2F9900222F0A12B0
:102E400055230A16342F2408433C03192B2F24083A
:102E5000633C031D312F0A128A15902A0A168A1123
:0A2E6000342F0A1255230A16080049
:02400E00323F3F
:00000001FF
;PIC16F877A
;CRC=C95A  CREATED="28-Jun-22 22:55"
